{
  "contractName": "RefugeeIdentity",
  "abi": [
    {
      "constant": false,
      "inputs": [
        {
          "name": "_id",
          "type": "uint256"
        },
        {
          "name": "_fullName",
          "type": "bytes32"
        },
        {
          "name": "_origin",
          "type": "bytes32"
        },
        {
          "name": "_organization",
          "type": "bytes32"
        },
        {
          "name": "_ipfs1",
          "type": "bytes32"
        },
        {
          "name": "_ipfs2",
          "type": "bytes32"
        }
      ],
      "name": "editPerson",
      "outputs": [],
      "payable": true,
      "stateMutability": "payable",
      "type": "function"
    },
    {
      "constant": true,
      "inputs": [],
      "name": "getAll",
      "outputs": [
        {
          "name": "",
          "type": "uint256[]"
        },
        {
          "name": "",
          "type": "bytes32[]"
        },
        {
          "name": "",
          "type": "bytes32[]"
        },
        {
          "name": "",
          "type": "bytes32[]"
        },
        {
          "name": "",
          "type": "bytes32[]"
        },
        {
          "name": "",
          "type": "bytes32[]"
        }
      ],
      "payable": false,
      "stateMutability": "view",
      "type": "function"
    },
    {
      "constant": false,
      "inputs": [
        {
          "name": "_address",
          "type": "address"
        }
      ],
      "name": "addAdmin",
      "outputs": [],
      "payable": false,
      "stateMutability": "nonpayable",
      "type": "function"
    },
    {
      "constant": true,
      "inputs": [
        {
          "name": "_id",
          "type": "uint256"
        }
      ],
      "name": "getOnePersonById",
      "outputs": [
        {
          "name": "",
          "type": "uint256"
        },
        {
          "name": "",
          "type": "bytes32"
        },
        {
          "name": "",
          "type": "bytes32"
        },
        {
          "name": "",
          "type": "bytes32"
        },
        {
          "name": "",
          "type": "bytes32"
        },
        {
          "name": "",
          "type": "bytes32"
        }
      ],
      "payable": false,
      "stateMutability": "view",
      "type": "function"
    },
    {
      "constant": true,
      "inputs": [],
      "name": "getCount",
      "outputs": [
        {
          "name": "",
          "type": "uint256"
        }
      ],
      "payable": false,
      "stateMutability": "view",
      "type": "function"
    },
    {
      "constant": true,
      "inputs": [],
      "name": "isAdmin",
      "outputs": [
        {
          "name": "",
          "type": "bool"
        }
      ],
      "payable": false,
      "stateMutability": "view",
      "type": "function"
    },
    {
      "constant": false,
      "inputs": [
        {
          "name": "_address",
          "type": "address"
        },
        {
          "name": "_id",
          "type": "uint256"
        }
      ],
      "name": "transferIdentityOwnership",
      "outputs": [
        {
          "name": "",
          "type": "bool"
        }
      ],
      "payable": true,
      "stateMutability": "payable",
      "type": "function"
    },
    {
      "constant": false,
      "inputs": [
        {
          "name": "_fullName",
          "type": "bytes32"
        },
        {
          "name": "_origin",
          "type": "bytes32"
        },
        {
          "name": "_organization",
          "type": "bytes32"
        },
        {
          "name": "_ipfs1",
          "type": "bytes32"
        },
        {
          "name": "_ipfs2",
          "type": "bytes32"
        }
      ],
      "name": "addPerson",
      "outputs": [],
      "payable": true,
      "stateMutability": "payable",
      "type": "function"
    },
    {
      "anonymous": false,
      "inputs": [
        {
          "indexed": false,
          "name": "msg",
          "type": "string"
        },
        {
          "indexed": false,
          "name": "id",
          "type": "uint256"
        }
      ],
      "name": "eventPersonAdded",
      "type": "event"
    },
    {
      "anonymous": false,
      "inputs": [
        {
          "indexed": false,
          "name": "msg",
          "type": "string"
        },
        {
          "indexed": false,
          "name": "id",
          "type": "uint256"
        }
      ],
      "name": "eventPersonEdited",
      "type": "event"
    },
    {
      "anonymous": false,
      "inputs": [
        {
          "indexed": false,
          "name": "msg",
          "type": "string"
        },
        {
          "indexed": false,
          "name": "id",
          "type": "uint256"
        }
      ],
      "name": "eventGetPerson",
      "type": "event"
    },
    {
      "anonymous": false,
      "inputs": [
        {
          "indexed": false,
          "name": "msg",
          "type": "string"
        },
        {
          "indexed": false,
          "name": "id",
          "type": "uint256"
        }
      ],
      "name": "eventtransferIdentityOwnership",
      "type": "event"
    }
  ],
  "bytecode": "0x60606040908152600060028190558054600160a060020a033316600160a060020a031990911681178255815260016020819052919020805460ff19169091179055610bb68061004f6000396000f30060606040526004361061008d5763ffffffff7c01000000000000000000000000000000000000000000000000000000006000350416632edd7e45811461009257806353ed5143146100ae578063704802751461026e57806378784e6d1461028d578063a87d942c146102dc578063b6db75a014610301578063dcfced3814610328578063ee2f52661461033f575b600080fd5b6100ac60043560243560443560643560843560a435610356565b005b34156100b957600080fd5b6100c161050d565b6040518080602001806020018060200180602001806020018060200187810387528d818151815260200191508051906020019060200280838360005b838110156101155780820151838201526020016100fd565b5050505090500187810386528c818151815260200191508051906020019060200280838360005b8381101561015457808201518382015260200161013c565b5050505090500187810385528b818151815260200191508051906020019060200280838360005b8381101561019357808201518382015260200161017b565b5050505090500187810384528a818151815260200191508051906020019060200280838360005b838110156101d25780820151838201526020016101ba565b50505050905001878103835289818151815260200191508051906020019060200280838360005b838110156102115780820151838201526020016101f9565b50505050905001878103825288818151815260200191508051906020019060200280838360005b83811015610250578082015183820152602001610238565b505050509050019c5050505050505050505050505060405180910390f35b341561027957600080fd5b6100ac600160a060020a036004351661076c565b341561029857600080fd5b6102a36004356107ae565b60405195865260208601949094526040808601939093526060850191909152608084015260a083019190915260c0909101905180910390f35b34156102e757600080fd5b6102ef61087d565b60405190815260200160405180910390f35b341561030c57600080fd5b610314610883565b604051901515815260200160405180910390f35b610314600160a060020a03600435166024356108a2565b6100ac600435602435604435606435608435610a5d565b600160a060020a03331660009081526004602052604090206001015460ff16806103985750600160a060020a03331660009081526001602052604090205460ff165b80156103a5575085600254105b1561048f5760c060405190810160409081528782526020808301889052818301879052606083018690526080830185905260a083018490526000898152600390915220815181556020820151600182015560408201516002820155606082015160038201556080820151600482015560a0820151600590910155507f4d36f86e676dc9c562e49287b620fd4f286f76654d0cf620a9b9035624dc4339866040516020808201929092526040808252808201929092527f506572736f6e206461746120656469746564207375636365737366756c6c792e6060820152608001905180910390a1610505565b7f4d36f86e676dc9c562e49287b620fd4f286f76654d0cf620a9b9035624dc433986604051602081019190915260408082526018818301527f4572726f72206c6f6f6b696e6720757020706572736f6e2e000000000000000060608301526080909101905180910390a160025486901161050557fe5b505050505050565b610515610b78565b61051d610b78565b610525610b78565b61052d610b78565b610535610b78565b61053d610b78565b610545610b78565b61054d610b78565b610555610b78565b61055d610b78565b610565610b78565b61056d610b78565b600060025460405180591061057f5750595b908082528060200260200182016040525096506002546040518059106105a25750595b908082528060200260200182016040525095506002546040518059106105c55750595b908082528060200260200182016040525094506002546040518059106105e85750595b9080825280602002602001820160405250935060025460405180591061060b5750595b9080825280602002602001820160405250925060025460405180591061062e5750595b90808252806020026020018201604052509150600090505b6002548110156107585760008181526003602052604090205487828151811061066b57fe5b602090810290910181019190915260008281526003909152604090206001015486828151811061069757fe5b60209081029091018101919091526000828152600390915260409020600201548582815181106106c357fe5b602090810290910181019190915260008281526003918290526040902001548482815181106106ee57fe5b602090810290910181019190915260008281526003909152604090206004015483828151811061071a57fe5b602090810290910181019190915260008281526003909152604090206005015482828151811061074657fe5b60209081029091010152600101610646565b50949b939a50919850965094509092509050565b60005433600160a060020a0390811691161461078757600080fd5b600160a060020a03166000908152600160208190526040909120805460ff19169091179055565b6000806000806000808660025411156107fe575050506000848152600360208190526040909120805460018201546002830154938301546004840154600590940154929750909550929350610874565b7f792a0cda07275215d7dc62521704f75df346c112620a860d683d5086f898d9e38760405160208101919091526040808252601a818301527f496e76616c6964204944207573656420666f72206c6f6f6b757000000000000060608301526080909101905180910390a160025487901061087457fe5b91939550919395565b60025490565b600160a060020a03331660009081526001602052604090205460ff1690565b600160a060020a03331660009081526001602052604081205460ff1615156108c957600080fd5b600160a060020a038316600090815260046020526040902060010154839060ff16156108f457600080fd5b6002548310156109bb576040805190810160409081528482526001602080840191909152600160a060020a0387166000908152600490915220815181556020820151600191909101805460ff1916911515919091179055507fac6cb81040dc26b96e2244f94a7e53645f51cc024ef2cc4f80d0725631f70f798360405160208101919091526040808252601e818301527f4964656e74697479206f77656e657273686970207472616e736665726564000060608301526080909101905180910390a1610a56565b7fac6cb81040dc26b96e2244f94a7e53645f51cc024ef2cc4f80d0725631f70f7983604051602081019190915260408082526031818301527f4572726f72207768656e20747279696e6720746f207472616e7366657220696460608301527f656e74697479206f77656e657273686970000000000000000000000000000000608083015260a0909101905180910390a16002548311610a5657fe5b5092915050565b600160a060020a03331660009081526001602052604090205460ff161515610a8457600080fd5b60c060405190810160409081526002548083526020808401899052828401889052606084018790526080840186905260a0840185905260009182526003905220815181556020820151600182015560408201516002820155606082015160038201556080820151600482015560a08201516005909101555060028054600101908190557f5864c86ac71f29c94e8cab09c3d9fa35119de019df7171b635529a6eb6a4794b9060405160208101919091526040808252601e818301527f4e657720706572736f6e206164646564207375636365737366756c6c792e000060608301526080909101905180910390a15050505050565b602060405190810160405260008152905600a165627a7a72305820a32667158e695f72edf7f88d68f28f6ee85b18488fe673db90b726ea7045ad930029",
  "source": "pragma solidity ^0.4.17;\n\nimport \"./OwnerIdentity.sol\";\n\ncontract RefugeeIdentity is OwnerIdentity {\n   \n   uint counter = 0;\n   \n   struct Person {\n       uint id;\n       bytes32 fullName;\n       bytes32 origin;\n       bytes32 organization;\n       bytes32 ipfsFirst;\n       bytes32 ipfsSecond;\n   }\n   \n   struct PersonWithUport {\n       uint id;\n       bool exists;\n   }\n\n   event eventPersonAdded(string msg, uint id);\n   event eventPersonEdited(string msg, uint id);\n   event eventGetPerson(string msg, uint id);\n   event eventtransferIdentityOwnership(string msg, uint id);\n   \n    mapping(uint => Person) people;\n    \n    mapping(address => PersonWithUport) peopleWithUport;\n    \n    modifier _ownerDoenstExist(address _address)  {\n        require(!peopleWithUport[_address].exists);\n        _;\n    }\n    \n    function addPerson(bytes32 _fullName, bytes32 _origin, bytes32 _organization, bytes32 _ipfs1, bytes32 _ipfs2) public _adminOnly() payable {\n        people[counter] = Person(counter, _fullName, _origin, _organization, _ipfs1, _ipfs2);\n        eventPersonAdded(\"New person added successfully.\", ++counter);\n    }\n    \n     function editPerson(uint _id, bytes32 _fullName, bytes32 _origin, bytes32 _organization, bytes32 _ipfs1, bytes32 _ipfs2) public  payable {\n        if ((peopleWithUport[msg.sender].exists || admins[msg.sender]) && counter < _id) {\n            people[_id] = Person(_id, _fullName, _origin, _organization, _ipfs1, _ipfs2);\n            eventPersonEdited(\"Person data edited successfully.\", _id);\n        } else {\n            eventPersonEdited(\"Error looking up person.\", _id);\n            assert(counter > _id);\n        }\n    }\n    \n    function getOnePersonById(uint _id) public view returns(uint, bytes32, bytes32, bytes32, bytes32, bytes32) {\n        if (counter > _id) {\n            return (people[_id].id, people[_id].fullName, people[_id].origin, people[_id].organization, people[_id].ipfsFirst, people[_id].ipfsSecond);\n        } else {\n            eventGetPerson(\"Invalid ID used for lookup\", _id);\n            assert(counter < _id);\n        }\n    }\n    \n    function getAll() public view returns(uint[], bytes32[], bytes32[], bytes32[], bytes32[], bytes32[]) {\n        \n        uint[] memory ids = new uint[](counter);\n        bytes32[] memory names = new bytes32[](counter);\n        bytes32[] memory origins = new bytes32[](counter);\n        bytes32[] memory organizations = new bytes32[](counter);\n        bytes32[] memory ipfsOne = new bytes32[](counter);\n        bytes32[] memory ipfsTwo = new bytes32[](counter);\n        \n        for (uint i = 0; i < counter; i++) {\n            ids[i] = people[i].id;\n            names[i] = people[i].fullName;\n            origins[i] = people[i].origin;\n            organizations[i] = people[i].organization;\n            ipfsOne[i] = people[i].ipfsFirst;\n            ipfsTwo[i] = people[i].ipfsSecond;\n        }\n        \n        return (ids, names, origins, organizations, ipfsOne, ipfsTwo);\n    }\n    \n    function transferIdentityOwnership(address _address, uint _id) public payable _adminOnly() _ownerDoenstExist(_address) returns(bool) {\n        if (_id < counter) {\n            peopleWithUport[_address] = PersonWithUport(_id, true);\n            eventtransferIdentityOwnership(\"Identity owenership transfered\", _id);\n        } else {\n            eventtransferIdentityOwnership(\"Error when trying to transfer identity owenership\", _id);\n            assert(_id > counter);\n        }\n    }\n    \n    function getCount() public view returns (uint) {\n        return counter;\n    }\n    \n}\n",
  "sourcePath": "/Users/mhydary/Desktop/mehran-dev/ethDenver-refugee-identity/src/ethereum/contracts/RefugeeIdentity.sol",
  "compiler": {
    "name": "solc",
    "version": "0.4.18+commit.9cf6e910.Emscripten.clang"
  },
  "schemaVersion": "1.0.1",
  "updatedAt": "2018-03-11T21:16:47.550Z"
}